:020000040800F2
:10000000A006002035020008FD0700084F05000883
:100010004D060008EF020008190E0008000000005D
:100020000000000000000000000000004D0A000871
:10003000A9030008000000006D090008F50C000885
:100040004F0200084F0200084F0200084F0200084C
:100050004F0200084F0200084F0200084F0200083C
:100060004F0200084F0200084F0200084F0200082C
:100070004F0200084F0200084F0200084F0200081C
:100080004F0200084F0200084F0200080000000065
:100090000000000000000000000000004F02000807
:1000A0004F0200084F0200084F020008650D0008CB
:1000B0004F0200084F0200084F0200084F020008DC
:1000C0004F0200084F0200084F0200084F020008CC
:1000D0004F020008DD0D00084F020008000000007C
:1000E0004F0200084F0200084F0200080000000005
:1000F0000000000000000000000000004F020008A7
:10010000000000004F0200084F0200084F020008E4
:1001100000000000000000000000000000000000DF
:100120004F0200084F0200084F0200084F0200086B
:100130004F02000800000000000000000000000066
:100140000000000000000000000000004F02000856
:100150004F0200084F0200084F0200084F0200083B
:100160004F0200084F0200080000000000000000DD
:10017000000000000000000000000000000000007F
:10018000000000004F020008000000000000000016
:100190004F02000800F002F800F03CF80AA090E8D6
:1001A000000C82448344AAF10107DA4501D100F032
:1001B00031F8AFF2090EBAE80F0013F0010F18BFC3
:1001C000FB1A43F001031847340D0000540D0000E2
:1001D000103A24BF78C878C1FAD8520724BF30C873
:1001E00030C144BF04680C60704700000023002445
:1001F00000250026103A28BF78C1FBD8520728BF37
:1002000030C148BF0B6070471FB500F071FE1FBDC5
:1002100010B510BD00F031F81146FFF7F5FF00F002
:10022000FDFD00F04FF803B4FFF7F2FF03BC00F050
:1002300057F800000948804709480047FEE7FEE7F5
:10024000FEE7FEE7FEE7FEE7FEE7FEE7FEE7FEE786
:1002500004480549054A064B70470000FD0C00089C
:1002600095010008A0000020A0060020A0020020A8
:10027000A0020020704770477047754600F02CF8C8
:10028000AE4605006946534620F00700854618B083
:1002900020B5FFF7DDFFBDE820404FF000064FF02E
:1002A00000074FF000084FF0000B21F00701AC46AB
:1002B000ACE8C009ACE8C009ACE8C009ACE8C009CA
:1002C0008D46704710B50446AFF300802046BDE868
:1002D0001040FFF7A8BF0000004870474000002012
:1002E00001491820ABBEFEE726000200704700BFA0
:1002F000FEE700001449B1F90810A1F57A7100EE8B
:10030000101AB8EEC00A9FED111AC0EE010A9FED57
:10031000101A9FED0F0A00EE810ABDEEC00A10EE22
:10032000101A09B20180B0F900100A4A1160B0F940
:100330000010121D1160B0F90010121D1160B0F90B
:100340000010121D116070472C000020000077443F
:1003500000007A4434040040124909684143642291
:10036000B1FBF2F10F4A083211600E4909684143AE
:100370006422B1FBF2F10B4A0C32116009490968A1
:1003800041436422B1FBF2F1064A10321160054983
:10039000096841436422B1FBF2F1024A1432116050
:1003A000704700002C040040704700B5034603E08E
:1003B0004FF47A7000F011F8181EA3F10103F7D181
:1003C00000BD10B5044603E04FF47A70FFF7EDFF6F
:1003D000201EA4F10104F7D110BD542141434FF078
:1003E000E0225161002191610521116100BF4FF0B0
:1003F000E021096901F480310029F8D004214FF08F
:10040000E022116170472DE9F04180460E46154605
:10041000002400F0ADF93C2000F095F900F05EF901
:10042000404600F090F900F059F900F0A1F93D20A4
:1004300000F089F900F052F918E000F05EF9074683
:10044000002000F074F900F058F940EA072007B2E4
:1004500026F81470601CC4B2681EA04203D10120AB
:1004600000F065F902E0002000F061F9AC42E4DB45
:1004700000F08CF9BDE8F0811CB50446032000F0C3
:1004800028F82080072000F024F8A080052000F044
:1004900020F86080032269461046FFF7B4FFBDF8DC
:1004A00000002080BDF80200A080BDF8040060803C
:1004B0001CBD10B500F0CCF87021002000F030F821
:1004C0002021012000F02CF80021022000F028F863
:1004D00010BD70B5054600F04BF93C2000F033F933
:1004E00000F0FCF8284600F02EF900F0F7F800F0D4
:1004F0003FF93D2000F027F900F0F0F800F0FDF89A
:100500000446002000F013F900F0F7F840EA042058
:1005100004B2012000F00BF900F038F9204670BD5C
:1005200070B505460C4600F023F93C2000F00BF9AD
:1005300000F0D4F8284600F006F900F0CFF8204685
:1005400000F001F900F0CAF800F020F970BD00BF1A
:10055000FEE710B504463B2000F03AF820803D202D
:1005600000F036F860803F2000F032F8A080432091
:1005700000F02EF8E080452000F02AF82081472086
:1005800000F026F8608110BD10B500F061F801217F
:100590006B2000F044F800216C2000F040F80921A5
:1005A000192000F03CF806211A2000F038F8182134
:1005B0001B2000F034F818211C2000F030F8002136
:1005C0006A2000F02CF80221372000F028F810BD36
:1005D00070B5054600F0CCF8D02000F0B4F800F07B
:1005E0007DF8284600F0AFF800F078F800F0C0F889
:1005F000D12000F0A8F800F071F800F07EF8044671
:10060000002000F094F800F078F840EA042004B2EA
:10061000012000F08CF800F0B9F8204670BD70B5EC
:1006200005460C4600F0A4F8D02000F08CF800F04D
:1006300055F8284600F087F800F050F8204600F002
:1006400082F800F04BF800F0A1F870BD00BFFEE7A3
:100650001848006840F00200164908601648006813
:1006600020F47020144908600846006840F4A02077
:100670000860081D006840F44070091D0860081DEE
:10068000006840F42020091D0860081D006820F45F
:100690007020091D086008481430006840F480701C
:1006A0000549143108600846006840F4007008608D
:1006B00070470000303802400004024010B5064880
:1006C000006800F4007008B1012400E000240A2052
:1006D000FFF783FE204610BD1004024010B5012034
:1006E00000F076F8012000F05DF8FFF7E7FF044620
:1006F000002000F057F8204610BD70B500250120FD
:1007000000F066F800240EE0012000F04BF8FFF73F
:10071000D5FF012802D1802020410543002000F0B0
:1007200041F8601CC4B2082CEEDB284670BD10B541
:100730000446204600F04CF8012000F033F8002079
:1007400000F030F810BD70B5054600240DE08021A2
:10075000214101EA050000F03BF8012000F022F8F9
:10076000002000F01FF8601CC4B2082CEFDB70BD45
:1007700010B5012000F02CF8012000F013F8002043
:1007800000F026F8002000F00DF810BD10B5002094
:1007900000F01EF8012000F005F8012000F018F824
:1007A00010BD000010B5044634B90848006820F4B4
:1007B00080700649086005E00448006840F48070D5
:1007C000024908600A20FFF708FE10BD1404024029
:1007D00010B5044634B90848006820F40070064992
:1007E000086005E00448006840F4007002490860B1
:1007F0000A20FFF7F2FD10BD14040240704700000C
:1008000010B55648006840F0040054490860534849
:100810001030006840F00200504910310860504824
:10082000006820F47F204E4908600846006840F4C4
:100830002A200860081D006820F47070091D0860F7
:1008400047480C30006840F4AA2045490C31086044
:10085000081F006840F47F20091F086040482030CE
:10086000006820F07F403E49203108603C48406AE3
:1008700020F0FF013A48416239482030006840F0DA
:1008800000703749203108600846006840F0005089
:1008900008603348406A40F0020131484162406AD2
:1008A00040F020012E48416244F61F602D49086047
:1008B000081F008840F05300091F08800720FFF739
:1008C0004BFD28482C38008840F0800025492C3901
:1008D00008800846008820F010000880214814385D
:1008E000008846F2600108431E4914390880084612
:1008F000008840F6080108431A4914390880081D89
:10090000008846F2600108431649103908800846FD
:10091000008840F608010843124910390880081D74
:10092000008841F2111108430E490C3908800D4826
:100930002C38008840F001000A492C39088000BF9B
:100940000948B0F90800B0F57C7FF9DC0520FFF715
:1009500003FD0320FFF735FD10BD000030380240D5
:10096000000802402C0400402C00002070470000CA
:100970003148006840F001002F4908602E481430CB
:10098000006840F001002C49143108602B480068D1
:1009900020F44030294908600846006840F40030DF
:1009A00008600846C06840F48030C8600846806827
:1009B00040F4403088600846406A20F00F011F482C
:1009C0004162406A40F001011C4841624FF6FF70ED
:1009D0001B49C862532008850846008820F0100093
:1009E00008800846008B40F0010008830846008B11
:1009F00020F00C0008830846008B20F0F0000883EC
:100A00000846808940F002008881A0210D480170CD
:100A10000D48006840F000604FF0E021C1F800018F
:100A20000748008840F00100054908800846008C0E
:100A300040F0010008847047303802400000024056
:100A4000000001401BE400E000E100E0704700000E
:100A5000454A126842F00202434B1A60424A14327D
:100A6000126842F01002404B14331A603F4A126879
:100A700022F470423D4B1A601A46126842F420423A
:100A80001A603A4A0832126842F42042374B08335F
:100A90001A601A1D126822F470421B1D1A601A4651
:100AA000126842F4A0421A60304A2032126822F0E2
:100AB0007F422E4B20331A601A46126842F0E062E1
:100AC0001A601A46126842F0E0421A60284A928977
:100AD00022F40042264B9A811A46928922F48052CF
:100AE0009A811A46928942F00C029A811A46128A19
:100AF00022F440521A821A46928A22F480629A8222
:100B0000DFED1C0AB0EE600AFCEEC00A10EE900A9F
:100B100000EE900AF8EE600A70EE600AB3EE001A7A
:100B200060EE810AFCEEE00A10EE901A41EA001233
:100B30001A81114A114B1A60F023114A13700C4AA2
:100B4000928942F020020A4B9A810E4A126842F0C2
:100B500020024FF0E023C3F80421054A928942F4B1
:100B60000052034B9A817047303802400004024023
:100B700000100140000034420005FA050CED00E0D1
:100B800025E400E004E100E010B50246012000E0A9
:100B900050430B1EA1F10101FAD110BD30B504463E
:100BA0000D46002304E0E05C00F006F8581C83B218
:100BB000AB42F8DB30BD000000BF0549098801F0F9
:100BC00080010029F9D0C0F30801014A91807047E3
:100BD00000100140F0B506460C46002512E0601BEF
:100BE000411E0A20FFF7D0FFB6FBF0F00A21B0FB50
:100BF000F1F201FB120000F130073846FFF7DCFF8D
:100C0000681CC5B2A542EADBF0BD00000CB50020AF
:100C1000019000903348006840F48030314908600A
:100C200000BF3048006800F4003000900198401C7C
:100C30000190009818B90198B0F5A04FF1D129485A
:100C4000006800F4003010B10120009001E00020A5
:100C500000900098012844D122484030006840F0BC
:100C600080502049403108601F48006840F44040EF
:100C70001D4908601B48083000681A49083108609F
:100C80000846006808600846006840F48050086024
:100C90001648091F0860081F006840F08070091F8F
:100CA000086000BF0F48006800F000700028F9D00D
:100CB00040F202700E4908600A480830006820F0CF
:100CC00003000849083108600846006840F0020047
:100CD000086000BF03480830006800F00C000828D6
:100CE000F8D10CBD003802400070004008544107A4
:100CF000003C024010B500F065F810BD10B5154875
:100D0000006840F47000134908601348006840F020
:100D100001001149086000200F49083108600E48A1
:100D200000680E4908400C4908600D48091D08601C
:100D3000081F006820F48020091F08600020064971
:100D40000C310860FFF762FF4FF000600149803905
:100D5000086010BD88ED00E000380240FFFFF6FE9D
:100D6000103000241548008A00F0020020B3002053
:100D7000124948620846406BB0F57A6F04D30120EF
:100D80000F494870002008700D484078012813D1A1
:100D90000A48406B01B20A4802780078401C084BB0
:100DA0001870981C20F81210801E0078092803D1B2
:100DB000002019460870487070470000000001408C
:100DC0002C0000200448006820B103480068401E41
:100DD00001490860704700001000002000B50B4872
:100DE000008800F0200080B1084880880849087019
:100DF0000120084908700548008820F020000349B8
:100E0000088003480078FFF7D7FE00BD00100140BE
:100E1000140000201500002000BFFEE7FFF7B4FB20
:100E2000FFF747FBFFF714FEFFF7A2FDFFF7E8FC13
:100E30004DE027484078012802D12648FFF75AFAAA
:100E40002548FFF786FB2548FFF716FB042124A061
:100E5000FFF7A4FE1E49B1F904000421FFF7BAFE12
:100E60002020FFF7A9FE1A49B1F906000421FFF777
:100E7000B1FE2020FFF7A0FE1549B1F908000421BA
:100E8000FFF7A8FE0A20FFF797FE042116A0FFF740
:100E900085FE1149B1F900000421FFF79BFE2020D7
:100EA000FFF78AFE0C49B1F902000421FFF792FE18
:100EB0002020FFF781FE0849B1F904000421FFF763
:100EC00089FE0A20FFF778FE0220FFF77AFAB0E7E2
:100ED0002C00002016000020200000200000002030
:100EE0005245433A000000004D50553A00000000C2
:100EF0004FF04070E1EE100A704700001C0F000830
:100F00000000002020000000D00100083C0F000875
:100F10002000002080060000EC0100080000000016
:100F200000000000000000000000000000000000C1
:0C0F3000000000000000000000000000B5
:040000050800019559
:00000001FF
