:020000040800F2
:100000008006002035020008D1050008F103000831
:100010006B040008EF020008890B000800000000D4
:1000200000000000000000000000000019080008A7
:10003000450300080000000039070008590A0008BD
:100040004F0200084F0200084F0200084F0200084C
:100050004F0200084F0200084F0200084F0200083C
:100060004F0200084F0200084F0200084F0200082C
:100070004F0200084F0200084F0200084F0200081C
:100080004F0200084F0200084F0200080000000065
:100090000000000000000000000000004F02000807
:1000A0004F0200084F0200084F020008C90A00086A
:1000B0004F0200084F0200084F0200084F020008DC
:1000C0004F0200084F0200084F0200084F020008CC
:1000D0004F0200084D0B00084F020008000000000E
:1000E0004F0200084F0200084F0200080000000005
:1000F0000000000000000000000000004F020008A7
:10010000000000004F0200084F0200084F020008E4
:1001100000000000000000000000000000000000DF
:100120004F0200084F0200084F0200084F0200086B
:100130004F02000800000000000000000000000066
:100140000000000000000000000000004F02000856
:100150004F0200084F0200084F0200084F0200083B
:100160004F0200084F0200080000000000000000DD
:10017000000000000000000000000000000000007F
:10018000000000004F020008000000000000000016
:100190004F02000800F002F800F03CF80AA090E8D6
:1001A000000C82448344AAF10107DA4501D100F032
:1001B00031F8AFF2090EBAE80F0013F0010F18BFC3
:1001C000FB1A43F001031847E8090000080A000081
:1001D000103A24BF78C878C1FAD8520724BF30C873
:1001E00030C144BF04680C60704700000023002445
:1001F00000250026103A28BF78C1FBD8520728BF37
:1002000030C148BF0B6070471FB500F0CBFC1FBD6D
:1002100010B510BD00F031F81146FFF7F5FF00F002
:10022000B5FC00F04FF803B4FFF7F2FF03BC00F099
:1002300057F800000948804709480047FEE7FEE7F5
:10024000FEE7FEE7FEE7FEE7FEE7FEE7FEE7FEE786
:1002500004480549054A064B70470000610A00083A
:100260009501000880000020800600208002002008
:1002700080020020704770477047754600F02CF8E8
:10028000AE4605006946534620F00700854618B083
:1002900020B5FFF7DDFFBDE820404FF000064FF02E
:1002A00000074FF000084FF0000B21F00701AC46AB
:1002B000ACE8C009ACE8C009ACE8C009ACE8C009CA
:1002C0008D46704710B50446AFF300802046BDE868
:1002D0001040FFF7A8BF0000004870471C00002036
:1002E00001491820ABBEFEE726000200704700BFA0
:1002F000FEE700001249096841436422B1FBF2F1B4
:100300000F4A083211600E49096841436422B1FB6B
:10031000F2F10B4A0C321160094909684143642229
:10032000B1FBF2F1064A10321160054909684143F8
:100330006422B1FBF2F1024A1432116070470000EE
:100340002C040040704700B5034603E04FF47A7078
:1003500000F011F8181EA3F10103F7D100BD10B58C
:10036000044603E04FF47A70FFF7EDFF201EA4F17E
:100370000104F7D110BD542141434FF0E0225161F7
:10038000002191610521116100BF4FF0E021096951
:1003900001F480310029F8D004214FF0E0221161EE
:1003A000704710B500F064F87021002000F009F8E3
:1003B0002021012000F005F80021022000F001F8C2
:1003C00010BD70B505460C4600F0BCF83C2000F0AE
:1003D000A4F800F093F8284600F09FF800F08EF89B
:1003E000204600F09AF800F089F800F0B9F870BDE6
:1003F00000BFFEE710B500F03BF801216B2000F0D4
:100400001DF800216C2000F019F80921192000F0D6
:1004100015F806211A2000F011F818211B2000F011
:100420000DF818211C2000F009F800216A2000F0C6
:1004300005F80221372000F001F810BD70B505461F
:100440000C4600F07FF8D02000F067F800F056F876
:10045000284600F062F800F051F8204600F05DF800
:1004600000F04CF800F07CF870BD00BFFEE7000023
:100470001848006840F002001649086016480068F5
:1004800020F03C00144908600846006840F0140061
:100490000860081D006840F00600091D0860081D7E
:1004A000006840F02800091D0860081D006820F061
:1004B0003C00091D086008481430006840F0020044
:1004C0000549143108600846006840F004000860DF
:1004D00070470000303802400004024010B5064862
:1004E000006800F4007008B1012400E000240A2034
:1004F000FFF741FF204610BD1004024010B5012057
:1005000000F050F8012000F037F8FFF7E7FF04464D
:10051000002000F031F8204610BD70B505460024DB
:100520000DE08021214101EA050000F03BF80120A7
:1005300000F022F8002000F01FF8601CC4B2082C64
:10054000EFDB70BD10B5012000F02CF8012000F0A9
:1005500013F8002000F026F8002000F00DF810BD80
:1005600010B5002000F01EF8012000F005F8012071
:1005700000F018F810BD000010B5044634B9084862
:10058000006820F480700649086005E004480068AF
:1005900040F48070024908600A20FFF7ECFE10BDAD
:1005A0001404024010B5044634B90848006820F429
:1005B00000700649086005E00448006840F40070D7
:1005C000024908600A20FFF7D6FE10BD140402405D
:1005D0007047000010B55548006840F004005349CA
:1005E000086052481030006840F002004F49103156
:1005F00008604F48006820F47F204D490860084695
:10060000006840F42A200860081D006820F470701B
:10061000091D086046480C30006840F4AA2044498F
:100620000C310860081F006840F47F20091F086033
:100630003F482030006820F07F403D49203108606D
:100640003B48406A20F0FF01394841623848203079
:10065000006840F0007036492031086008460068A4
:1006600040F0005008603248406A40F002013048D3
:100670004162406A40F020012D48416244F61F600B
:100680002C490860081F008840F05300091F0880AB
:100690000A20FFF72FFE27482C38008840F0800002
:1006A00024492C3908800846008820F01000088072
:1006B00020481438008846F2600108431D49143967
:1006C00008800846008840F6080108431949143993
:1006D0000880081D008846F260010843154910395A
:1006E00008800846008840F608010843114910397F
:1006F0000880081D008841F2111108430D490C398A
:1007000008800C482C38008840F0010009492C3939
:1007100008800420FFF723FE0520FFF7EBFD0220F1
:10072000FFF71DFE0720FFF7E5FD10BD3038024042
:10073000000802402C040040704700003148006867
:1007400040F001002F4908602E481430006840F046
:1007500001002C49143108602B48006820F4403017
:10076000294908600846006840F4003008600846DF
:10077000C06840F48030C8600846806840F440306B
:1007800088600846406A20F00F011F484162406AB5
:1007900040F001011C4841624FF6FF701B49C862DE
:1007A000532008850846008820F01000088008467D
:1007B000008B40F0010008830846008B20F00C00FD
:1007C00008830846008B20F0F000088308468089E3
:1007D00040F002008881A0210D4801700D4800689A
:1007E00040F000604FF0E021C1F8000107480088A8
:1007F00040F00100054908800846008C40F00100E7
:100800000884704730380240000002400000014078
:100810001BE400E000E100E070470000454A126878
:1008200042F00202434B1A60424A1432126842F00C
:100830001002404B14331A603F4A126822F470428F
:100840003D4B1A601A46126842F420421A603A4A36
:100850000832126842F42042374B08331A601A1DDE
:10086000126822F470421B1D1A601A46126842F484
:10087000A0421A60304A2032126822F07F422E4B8A
:1008800020331A601A46126842F0E0621A601A4673
:10089000126842F0E0421A60284A928922F400422B
:1008A000264B9A811A46928942F480529A811A46BE
:1008B000928942F00C029A811A46128A22F440521E
:1008C0001A821A46928A22F480629A82DFED1C0A0A
:1008D000B0EE600AFCEEC00A10EE900A00EE900A3C
:1008E000F8EE600A70EE600AB3EE001A60EE810A5C
:1008F000FCEEE00A10EE901A41EA00121A81114A49
:10090000114B1A60F023114A13700C4A928942F07D
:1009100020020A4B9A810E4A126842F020024FF0E0
:10092000E023C3F80421054A928942F40052034BA4
:100930009A817047303802400004024000100140A4
:10094000008008440005FA050CED00E025E400E015
:1009500004E100E000BF0549098801F08001002999
:10096000F9D0C0F30801014A91807047001001409E
:100970000CB50020019000903348006840F48030AE
:100980003149086000BF3048006800F40030009032
:100990000198401C0190009818B90198B0F5A04F3B
:1009A000F1D12948006800F4003010B10120009016
:1009B00001E0002000900098012844D122484030F6
:1009C000006840F080502049403108601F480068AE
:1009D00040F440401D4908601B48083000681A492F
:1009E000083108600846006808600846006840F45E
:1009F000805008601648091F0860081F006840F012
:100A00008070091F086000BF0F48006800F0007088
:100A10000028F9D040F202700E4908600A480830F8
:100A2000006820F0030008490831086008460068A3
:100A300040F00200086000BF03480830006800F082
:100A40000C000828F8D10CBD0038024000700040AE
:100A500008544107003C024010B500F06BF810BD8F
:100A600010B51548006840F4700013490860134839
:100A7000006840F001001149086000200F4908316A
:100A800008600E4800680E4908400C4908600D488F
:100A9000091D0860081F006820F48020091F0860F5
:100AA000002006490C310860FFF762FF4FF000603C
:100AB00001498039086010BD88ED00E0003802402F
:100AC000FFFFF6FE103000241648008A00F00200F6
:100AD00030B30020134948620846406BB0F57A6F86
:100AE00005D30120104908700020104908700E48F5
:100AF0000078012814D10B48406B01B20B480278F2
:100B00000078401C094B1870094820F8121018464C
:100B10000078092804D1002019460870024908709D
:100B20007047000000000140070000200600002080
:100B3000080000200448006820B103480068401EF7
:100B400001490860704700000000002000B50B4814
:100B5000008800F0200080B10848808808490870AB
:100B60000120084908700548008820F0200003494A
:100B7000088003480078FFF7EDFE00BD001001403B
:100B8000040000200500002000BFFEE7FFF732FC54
:100B9000FFF707FCFFF742FEFFF71CFDFFF7CEFD56
:100BA00000BFFEE74FF04070E1EE100A7047000012
:100BB000D00B00080000002008000000D001000851
:100BC000D80B00080800002078060000EC0100089F
:080BD00000000000000000001D
:040000050800019559
:00000001FF
