:020000040800F2
:10000000B81A00203502000875080008C505000868
:10001000C306000823040008A51200080000000021
:10002000000000000000000000000000F90E0008C1
:10003000DD0400080000000023030008010B000895
:100040004F0200084F0200084F0200084F0200084C
:100050004F0200084F0200084F0200084F0200083C
:100060004F0200084F0200084F0200084F0200082C
:100070004F0200084F0200084F0200084F0200081C
:100080004F0200084F0200084F0200080000000065
:100090000000000000000000000000004F02000807
:1000A0004F0200084F0200084F0200080912000822
:1000B0004F0200084F0200084F0200084F020008DC
:1000C0004F0200084F0200084F0200084F020008CC
:1000D0004F020008691200084F02000800000000EB
:1000E0004F0200084F0200084F0200080000000005
:1000F0000000000000000000000000004F020008A7
:10010000000000004F0200084F0200084F020008E4
:1001100000000000000000000000000000000000DF
:100120004F0200084F0200084F0200084F0200086B
:100130004F02000800000000000000000000000066
:100140000000000000000000000000004F02000856
:100150004F0200084F0200084F0200084F0200083B
:100160004F0200084F0200080000000000000000DD
:10017000000000000000000000000000000000007F
:10018000000000004F020008000000000000000016
:100190004F02000800F002F800F03CF80AA090E8D6
:1001A000000C82448344AAF10107DA4501D100F032
:1001B00031F8AFF2090EBAE80F0013F0010F18BFC3
:1001C000FB1A43F001031847CC120000EC120000A8
:1001D000103A24BF78C878C1FAD8520724BF30C873
:1001E00030C144BF04680C60704700000023002445
:1001F00000250026103A28BF78C1FBD8520728BF37
:1002000030C148BF0B6070471FB501F0BDF81FBD7E
:1002100010B510BD00F0CBF81146FFF7F5FF01F067
:1002200043F800F0E9F803B4FFF7F2FF03BC00F075
:10023000F1F800000948804709480047FEE7FEE75B
:10024000FEE7FEE7FEE7FEE7FEE7FEE7FEE7FEE786
:1002500004480549054A064B70470000A1110008F3
:1002600095010008B8140020B81A0020B816002024
:10027000B8160020EFF3098121B120ED108A424920
:100280000A6810607047B0EC108A40490A68106034
:10029000704772B602B4EFF3118180F31188BFF397
:1002A0004F8FBFF36F8F084602BC62B6704772B6BD
:1002B00080F31188BFF34F8FBFF36F8F62B6704723
:1002C00072B633484FF0FF010170002080F30988B7
:1002D0003048016881F3088800F066FB2E48012150
:1002E00001702E482E490A780270274827490A686B
:1002F0000260106880F30988EFF3148040F0020078
:1003000080F31488BFF36F8FBDE8F04F0FBCBDE8DA
:10031000005006BC62B6084722484FF08051016089
:10032000704772B640F27C02C2F20002116881F39B
:100330001188BFF34F8FBFF36F8F62B6EFF3098061
:1003400020E9F04F104D29680860744600F02CFB3E
:10035000124813490A7802700C490A682A6044F06E
:10036000040E1068B0E8F04F80F3098840F20002F4
:10037000C0F2000272B682F31188BFF34F8FBFF351
:100380006F8F62B6704700003C00002044000020E0
:1003900022ED00E074000020360000202B00002039
:1003A0002C00002004ED00E0704770477047754650
:1003B00000F02CF8AE4605006946534620F00700D1
:1003C000854618B020B5FFF743FFBDE820404FF049
:1003D00000064FF000074FF000084FF0000B21F02F
:1003E0000701AC46ACE8C009ACE8C009ACE8C009FC
:1003F000ACE8C0098D46704710B50446AFF30080E5
:100400002046BDE81040FFF70EBF000000487047CF
:100410005814002001491820ABBEFEE72600020058
:10042000704700BFFEE700001449B1F90810A1F5BC
:100430007A7100EE101AB8EEC00A9FED111AC0EEE4
:10044000010A9FED101A9FED0F0A00EE810ABDEE22
:10045000C00A10EE101A09B20180B0F900100A4A61
:100460001160B0F90010121D1160B0F90010121DDA
:100470001160B0F90010121D116070478C0000204F
:100480000000774400007A443404004012490968AF
:1004900041436422B1FBF2F10F4A083211600E4968
:1004A000096841436422B1FBF2F10B4A0C3211603E
:1004B0000949096841436422B1FBF2F1064A10324E
:1004C00011600549096841436422B1FBF2F1024A17
:1004D00014321160704700002C0400407047542112
:1004E00041434FF0E02251610021916105211161EA
:1004F00000BF4FF0E021096901F480310029F8D0F4
:1005000004214FF0E0221161704710B5044603202A
:1005100000F01AF82080072000F016F8A0800520CF
:1005200000F012F8608010BD10B500F0CDF8702119
:10053000002000F030F82021012000F02CF80021EC
:10054000022000F028F810BD70B5054600F04CF907
:100550003C2000F034F900F0FDF8284600F02FF9B7
:1005600000F0F8F800F040F93D2000F028F900F024
:10057000F1F800F0FEF80446002000F014F900F055
:10058000F8F840EA042004B2012000F00CF900F071
:1005900039F9204670BD70B505460C4600F024F9C7
:1005A0003C2000F00CF900F0D5F8284600F007F9DF
:1005B00000F0D0F8204600F002F900F0CBF800F08F
:1005C00021F970BD00BFFEE710B504463B2000F0E6
:1005D0003AF820803D2000F036F860803F2000F09F
:1005E00032F8A080432000F02EF8E080452000F093
:1005F0002AF82081472000F026F8608110BD10B550
:1006000000F062F801216B2000F044F800216C201A
:1006100000F040F80921192000F03CF806211A20CA
:1006200000F038F818211B2000F034F818211C20A5
:1006300000F030F800216A2000F02CF80221372069
:1006400000F028F810BD70B5054600F0CDF8D020B8
:1006500000F0B5F800F07EF8284600F0B0F800F0A1
:1006600079F800F0C1F8D12000F0A9F800F072F894
:1006700000F07FF80446002000F095F800F079F8CB
:1006800040EA042004B2012000F08DF800F0BAF82E
:10069000204670BD70B505460C4600F0A5F8D02088
:1006A00000F08DF800F056F8284600F088F800F0C9
:1006B00051F8204600F083F800F04CF800F0A2F862
:1006C00070BD00BFFEE700001848006840F002005F
:1006D000164908601648006820F470201449086024
:1006E0000846006840F4A0200860081D006840F437
:1006F0004070091D0860081D006840F42020091D95
:100700000860081D006820F47020091D0860084872
:100710001430006840F480700549143108600846C0
:10072000006840F4007008607047000030380240F4
:100730000004024010B50648006800F4007008B1DB
:10074000012400E000240A20FFF7C9FE204610BD66
:100750001004024010B5012000F076F8012000F0EE
:100760005DF8FFF7E7FF0446002000F057F8204649
:1007700010BD70B50025012000F066F800240EE0E1
:10078000012000F04BF8FFF7D5FF012802D18020AF
:1007900020410543002000F041F8601CC4B2082C41
:1007A000EEDB284670BD10B50446204600F04CF83C
:1007B000012000F033F8002000F030F810BD70B5D3
:1007C000054600240DE08021214101EA050000F0EA
:1007D0003BF8012000F022F8002000F01FF8601C18
:1007E000C4B2082CEFDB70BD10B5012000F02CF86E
:1007F000012000F013F8002000F026F8002000F09F
:100800000DF810BD10B5002000F01EF8012000F01A
:1008100005F8012000F018F810BD000010B50446DE
:1008200034B90848006820F480700649086005E083
:100830000448006840F48070024908600A20FFF70D
:100840004EFE10BD1404024010B5044634B90848E9
:10085000006820F400700649086005E0044800685C
:1008600040F40070024908600A20FFF738FE10BD0E
:10087000140402407047000006480078012808D19F
:1008800005480078FF2804D203480078401C02493C
:1008900008707047360000202900002010B50024A1
:1008A0001D480078012835D100BF4020FFF7F1FC3A
:1008B000044600BF1948007820B118480078401E4F
:1008C0001649087015480078F8B915480078E0B95D
:1008D00000F0E8F913481449097850F82100134949
:1008E0000860114800781249097888420DD00F48F5
:1008F0000068006C401C0D49096808640D480068D8
:10090000401C0C490860FFF707FD00BF2046FFF7B9
:10091000CEFC00BF10BD00003600002029000020E2
:100920002A000020E00500202C00002044000020C8
:100930002B0000201000002070B5044600250CB9E3
:10094000042070BD2078032801D00120F9E700BF02
:100950004020FFF79EFC054600BFA07A70B100233F
:1009600001221946204600F0DFF800BF2846FFF7B5
:100970009EFC00BF00F056F90020E2E720894FF608
:10098000FF71884209D22089401C208100BF28467F
:10099000FFF78DFC00BF0020D3E700BF2846FFF71C
:1009A00086FC00BF3320CCE710B50549096808680C
:1009B000FFF760FC034909680868FFF764FC10BD95
:1009C0003C0000204400002070B5002600F07CF8B8
:1009D00000BF4020FFF75DFC064600BF34480068BA
:1009E000401C3349086000BF3046FFF760FC00BF81
:1009F00030480078012858D12F48007820B10128CC
:100A000004D0022809D103E001250BE0002509E00C
:100A1000012501202849087004E00125002026490D
:100A2000087000BF00BF05B970BD2448046838E0F5
:100A300000BF4020FFF72DFC064600BF606B50B39F
:100A4000606B401E6063606B28BB94F8380000F058
:100A5000370040B114F8380F00F0C80020700120B2
:100A60006070383C02E0002084F8390094F83800C7
:100A700000F0080078B93C34A0781149097808439F
:100A80000F49087020780F49085C6178084314F812
:100A90003C190C4A5054646900BF3046FFF707FC0C
:100AA00000BF94F83A003F28C2D100BFBCE7000065
:100AB0005C000020360000204C0000204800002090
:100AC0002D0000202E00002010B507480088401C93
:100AD00005490880084600880A2803D300200880BA
:100AE00000F004F810BD00007800002010B50348A5
:100AF0000068FFF721FF0446204610BD6C0000206F
:100B000010B500BF4020FFF7C4FB044600BFFFF74D
:100B1000B3FE00BF2046FFF7CAFB00BFFFF754FF3C
:100B2000FFF7BCFE10BD00002DE9F04F05460F4653
:100B300090469946A87A1D490E5C05F10B00805D30
:100B400011F800B00BEBC60000F0FF0A184850F88F
:100B50002A4000202834E0602760207C20EA08003A
:100B6000207484F81190207C283C00F0080068B9BB
:100B700094F83E000F49097808430E4908700E4862
:100B8000805D94F83D1008430B498855294620465E
:100B900000F014F8206A30B12046216A00F025F8F0
:100BA0000020206265625046BDE8F08F9213000875
:100BB000E00500202D0000202E00002010B590F848
:100BC0003C2001F10B039B5C90F83D40A34301F1F5
:100BD0000B04A35423469B5C23B98B7A90F83E40C8
:100BE000A3438B720023C36110BDF0B5024612F817
:100BF0003C4F957856783C3A0B4618680FE000F168
:100C00000B073F5DB74300F10B0C0CF8047067460F
:100C10003F5D17B9877AAF4387721B1D186800289C
:100C2000EDD1F0BD10B5002400BF4020FFF731FB2F
:100C3000044600BF14480078F8B914480078E0B9B9
:100C400000F030F812481349097850F82100124991
:100C50000860104800781149097888420DD00E4884
:100C60000068006C401C0C49096808640C48006866
:100C7000401C0B490860FFF74FFB00BF2046FFF701
:100C800016FB00BF10BD0000290000202A00002034
:100C9000E00500202C000020440000202B00002054
:100CA000100000200649074A1278885C0649095C52
:100CB000034A515C01EBC001044A11707047000007
:100CC000921300082D0000202E0000202C00002090
:100CD00000B54F48006840F004004D4908604C489A
:100CE0001030006840F0020049491031086049485E
:100CF000006820F47F20474908600846006840F4F7
:100D00002A200860081D006820F47070091D086022
:100D100040480C30006840F4AA203E490C3108607D
:100D2000081F006840F47F20091F08603948203000
:100D3000006820F07F403749203108603548406A1C
:100D400020F0FF013348416232482030006840F013
:100D500000703049203108600846006840F00050BB
:100D600008602C48406A40F002012A484162406A0B
:100D700040F020012748416244F61F602649086080
:100D8000081F008840F05300091F08800720FFF764
:100D90007DFB21482C38008840F080001E492C390A
:100DA00008800846008820F0100008801A4814388F
:100DB000008846F260010843174914390880084644
:100DC000008840F608010843134914390880081DBB
:100DD000008846F2600108430F4910390880084630
:100DE000008840F6080108430B4910390880081DA7
:100DF000008841F21111084307490C390880064860
:100E00002C38008840F0010003492C39088000BDCF
:100E100030380240000802402C040040314800688D
:100E200040F001002F4908602E481430006840F05F
:100E300001002C49143108602B48006820F4403030
:100E4000294908600846006840F4003008600846F8
:100E5000C06840F48030C8600846806840F4403084
:100E600088600846406A20F00F011F484162406ACE
:100E700040F001011C4841624FF6FF701B49C862F7
:100E8000532008850846008820F010000880084696
:100E9000008B40F0010008830846008B20F00C0016
:100EA00008830846008B20F0F000088308468089FC
:100EB00040F002008881A0210D4801700D480068B3
:100EC00040F000604FF0E021C1F8000107480088C1
:100ED00040F00100054908800846008C40F0010000
:100EE0000884704730380240000002400000014092
:100EF0001BE400E000E100E070470000454A126892
:100F000042F00202434B1A60424A1432126842F025
:100F10001002404B14331A603F4A126822F47042A8
:100F20003D4B1A601A46126842F420421A603A4A4F
:100F30000832126842F42042374B08331A601A1DF7
:100F4000126822F470421B1D1A601A46126842F49D
:100F5000A0421A60304A2032126822F07F422E4BA3
:100F600020331A601A46126842F0E0621A601A468C
:100F7000126842F0E0421A60284A928922F4004244
:100F8000264B9A811A46928922F480529A811A46F7
:100F9000928942F00C029A811A46128A22F4405237
:100FA0001A821A46928A22F480629A82DFED1C0A23
:100FB000B0EE600AFCEEC00A10EE900A00EE900A55
:100FC000F8EE600A70EE600AB3EE001A60EE810A75
:100FD000FCEEE00A10EE901A41EA00121A81114A62
:100FE000114B1A60F023114A13700C4A928942F097
:100FF00020020A4B9A810E4A126842F020024FF0FA
:10100000E023C3F80421054A928942F40052034BBD
:101010009A817047303802400004024000100140BD
:10102000000034420005FA050CED00E025E400E084
:1010300004E100E010B50246012000E050430B1E21
:10104000A1F10101FAD110BD30B504460D460023CF
:1010500004E0E05C00F006F8581C83B2AB42F8DB19
:1010600030BD000000BF0549098801F0800100295A
:10107000F9D0C0F30801014A918070470010014087
:10108000F0B506460C46002512E0601B411E0A2002
:10109000FFF7D0FFB6FBF0F00A21B0FBF1F201FB45
:1010A000120000F130073846FFF7DCFF681CC5B2BC
:1010B000A542EADBF0BD00000CB5002001900090D5
:1010C0003348006840F480303149086000BF304840
:1010D000006800F4003000900198401C01900098D6
:1010E00018B90198B0F5A04FF1D12948006800F473
:1010F000003010B10120009001E000200090009825
:10110000012844D122484030006840F080502049F6
:10111000403108601F48006840F440401D490860A5
:101120001B48083000681A49083108600846006802
:1011300008600846006840F4805008601648091F9F
:101140000860081F006840F08070091F086000BF39
:101150000F48006800F000700028F9D040F20270DB
:101160000E4908600A480830006820F0030008496A
:10117000083108600846006840F00200086000BFBF
:1011800003480830006800F00C000828F8D10CBDB6
:10119000003802400070004008544107003C024003
:1011A00010B51548006840F47000134908601348F2
:1011B000006840F001001149086000200F49083123
:1011C00008600E4800680E4908400C4908600D4848
:1011D000091D0860081F006820F48020091F0860AE
:1011E000002006490C310860FFF766FF4FF00060F1
:1011F00001498039086010BD88ED00E000380240E8
:10120000FFFFF6FE103000241548008A00F00200AF
:1012100020B30020124948620846406BB0F57A6F4F
:1012200004D301200F494870002008700D48407811
:10123000012813D10A48406B01B20A4802780078AD
:10124000401C084B1870981C20F81210801E007863
:10125000092803D100201946087048707047000023
:10126000000001408C00002000B50B48008800F011
:10127000200080B10848808808490870012008498A
:1012800008700548008820F02000034908800348C2
:101290000078FFF7E7FE00BD0010014006000020C7
:1012A0000700002000BFFEE7FFF7A9F9FFF73CF9B0
:1012B000FFF724FEFFF7B2FDFFF70AFD00244FE021
:1012C00028484078012802D12748FFF7ADF8274881
:1012D000844244D92648FFF777F92648FFF715F9E5
:1012E000042125A0FFF7B0FE1E49B1F90400042136
:1012F000FFF7C6FE2020FFF7B5FE1A49B1F9060038
:101300000421FFF7BDFE2020FFF7ACFE1549B1F91F
:1013100008000421FFF7B4FE0A20FFF7A3FE042112
:1013200017A0FFF791FE1249B1F900000421FFF761
:10133000A7FE2020FFF796FE0D49B1F90200042117
:10134000FFF79EFE2020FFF78DFE0949B1F904004A
:101350000421FFF795FE0A20FFF784FE0024641C99
:10136000AEE700008C00002008000020404B4C003D
:1013700080000020000000205245433A0000000099
:101380004D50553A000000004FF04070E1EE100A59
:10139000704700000100020001000300010002008C
:1013A000010004000100020001000300010002002E
:1013B000010005000100020001000300010002001D
:1013C000010004000100020001000300010002000E
:1013D00001000600010002000100030001000200FC
:1013E00001000400010002000100030001000200EE
:1013F00001000500010002000100030001000200DD
:1014000001000400010002000100030001000200CD
:1014100001000700010002000100030001000200BA
:1014200001000400010002000100030001000200AD
:10143000010005000100020001000300010002009C
:10144000010004000100020001000300010002008D
:10145000010006000100020001000300010002007B
:10146000010004000100020001000300010002006D
:10147000010005000100020001000300010002005C
:10148000010004000100020001000300010002004D
:1014900001000000B41400080000002080000000DB
:1014A000D00100083415000880000020381A000020
:1014B000EC01000800000000000000000000000037
:1014C000000000000000000000000000000000001C
:1014D000000000000000000000000000000000000C
:1014E00000000000000000000000000000000000FC
:1014F00000000000000000000000000000000000EC
:1015000000000000000000000000000000000000DB
:1015100000000000000000000000000000000000CB
:1015200000000000000000000000000000000000BB
:0415300000000000B7
:040000050800019559
:00000001FF
