:020000040800F2
:100000009806002035020008410700089104000806
:100010008F050008EF0200083D0D000800000000F9
:10002000000000000000000000000000710900084E
:10003000A90300080000000091080008190C00083E
:100040004F0200084F0200084F0200084F0200084C
:100050004F0200084F0200084F0200084F0200083C
:100060004F0200084F0200084F0200084F0200082C
:100070004F0200084F0200084F0200084F0200081C
:100080004F0200084F0200084F0200080000000065
:100090000000000000000000000000004F02000807
:1000A0004F0200084F0200084F020008890C0008A8
:1000B0004F0200084F0200084F0200084F020008DC
:1000C0004F0200084F0200084F0200084F020008CC
:1000D0004F020008010D00084F0200080000000058
:1000E0004F0200084F0200084F0200080000000005
:1000F0000000000000000000000000004F020008A7
:10010000000000004F0200084F0200084F020008E4
:1001100000000000000000000000000000000000DF
:100120004F0200084F0200084F0200084F0200086B
:100130004F02000800000000000000000000000066
:100140000000000000000000000000004F02000856
:100150004F0200084F0200084F0200084F0200083B
:100160004F0200084F0200080000000000000000DD
:10017000000000000000000000000000000000007F
:10018000000000004F020008000000000000000016
:100190004F02000800F002F800F03CF80AA090E8D6
:1001A000000C82448344AAF10107DA4501D100F032
:1001B00031F8AFF2090EBAE80F0013F0010F18BFC3
:1001C000FB1A43F001031847640C0000840C000084
:1001D000103A24BF78C878C1FAD8520724BF30C873
:1001E00030C144BF04680C60704700000023002445
:1001F00000250026103A28BF78C1FBD8520728BF37
:1002000030C148BF0B6070471FB500F009FE1FBD2D
:1002100010B510BD00F031F81146FFF7F5FF00F002
:100220008FFD00F04FF803B4FFF7F2FF03BC00F0BE
:1002300057F800000948804709480047FEE7FEE7F5
:10024000FEE7FEE7FEE7FEE7FEE7FEE7FEE7FEE786
:1002500004480549054A064B70470000210C000878
:1002600095010008980000209806002098020020C0
:1002700098020020704770477047754600F02CF8D0
:10028000AE4605006946534620F00700854618B083
:1002900020B5FFF7DDFFBDE820404FF000064FF02E
:1002A00000074FF000084FF0000B21F00701AC46AB
:1002B000ACE8C009ACE8C009ACE8C009ACE8C009CA
:1002C0008D46704710B50446AFF300802046BDE868
:1002D0001040FFF7A8BF000000487047340000201E
:1002E00001491820ABBEFEE726000200704700BFA0
:1002F000FEE700001449B1F90810A1F57A7100EE8B
:10030000101AB8EEC00A9FED111AC0EE010A9FED57
:10031000101A9FED0F0A00EE810ABDEEC00A10EE22
:10032000101A09B20180B0F900100A4A1160B0F940
:100330000010121D1160B0F90010121D1160B0F90B
:100340000010121D1160704720000020000077444B
:1003500000007A4434040040124909684143642291
:10036000B1FBF2F10F4A083211600E4909684143AE
:100370006422B1FBF2F10B4A0C32116009490968A1
:1003800041436422B1FBF2F1064A10321160054983
:10039000096841436422B1FBF2F1024A1432116050
:1003A000704700002C0400407047542141434FF037
:1003B000E0225161002191610521116100BF4FF0E0
:1003C000E021096901F480310029F8D004214FF0BF
:1003D000E0221161704710B50446032000F01AF8BE
:1003E0002080072000F016F8A080052000F012F809
:1003F000608010BD10B500F0CDF87021002000F035
:1004000030F82021012000F02CF80021022000F01B
:1004100028F810BD70B5054600F04CF93C2000F0FE
:1004200034F900F0FDF8284600F02FF900F0F8F854
:1004300000F040F93D2000F028F900F0F1F800F05C
:10044000FEF80446002000F014F900F0F8F840EA45
:10045000042004B2012000F00CF900F039F9204624
:1004600070BD70B505460C4600F024F93C2000F044
:100470000CF900F0D5F8284600F007F900F0D0F8A4
:10048000204600F002F900F0CBF800F021F970BD31
:1004900000BFFEE710B504463B2000F03AF820808C
:1004A0003D2000F036F860803F2000F032F8A08058
:1004B000432000F02EF8E080452000F02AF820814B
:1004C000472000F026F8608110BD10B500F062F8FA
:1004D00001216B2000F044F800216C2000F040F86E
:1004E0000921192000F03CF806211A2000F038F804
:1004F00018211B2000F034F818211C2000F030F8DF
:1005000000216A2000F02CF80221372000F028F8A2
:1005100010BD70B5054600F0CDF8D02000F0B5F85C
:1005200000F07EF8284600F0B0F800F079F800F00E
:10053000C1F8D12000F0A9F800F072F800F07FF8BF
:100540000446002000F095F800F079F840EA042015
:1005500004B2012000F08DF800F0BAF8204670BD1A
:1005600070B505460C4600F0A5F8D02000F08DF8D7
:1005700000F056F8284600F088F800F051F82046C0
:1005800000F083F800F04CF800F0A2F870BD00BF56
:10059000FEE700001848006840F0020016490860B5
:1005A0001648006820F47020144908600846006866
:1005B00040F4A0200860081D006840F44070091D48
:1005C0000860081D006840F42020091D0860081D0F
:1005D000006820F47020091D086008481430006885
:1005E00040F480700549143108600846006840F402
:1005F000007008607047000030380240000402407C
:1006000010B50648006800F4007008B1012400E04D
:1006100000240A20FFF7C9FE204610BD1004024046
:1006200010B5012000F076F8012000F05DF8FFF72A
:10063000E7FF0446002000F057F8204610BD70B5D3
:100640000025012000F066F800240EE0012000F0F3
:100650004BF8FFF7D5FF012802D180202041054348
:10066000002000F041F8601CC4B2082CEEDB2846E4
:1006700070BD10B50446204600F04CF8012000F093
:1006800033F8002000F030F810BD70B505460024A6
:100690000DE08021214101EA050000F03BF8012036
:1006A00000F022F8002000F01FF8601CC4B2082CF3
:1006B000EFDB70BD10B5012000F02CF8012000F038
:1006C00013F8002000F026F8002000F00DF810BD0F
:1006D00010B5002000F01EF8012000F005F8012000
:1006E00000F018F810BD000010B5044634B90848F1
:1006F000006820F480700649086005E0044800683E
:1007000040F48070024908600A20FFF74EFE10BDD9
:100710001404024010B5044634B90848006820F4B7
:1007200000700649086005E00448006840F4007065
:10073000024908600A20FFF738FE10BD1404024089
:100740007047000000B54F48006840F004004D4974
:1007500008604C481030006840F0020049491031F0
:1007600008604948006820F47F204749086008462F
:10077000006840F42A200860081D006820F47070AA
:10078000091D086040480C30006840F4AA203E492A
:100790000C310860081F006840F47F20091F0860C2
:1007A00039482030006820F07F4037492031086008
:1007B0003548406A20F0FF0133484162324820301A
:1007C000006840F000703049203108600846006839
:1007D00040F0005008602C48406A40F002012A486E
:1007E0004162406A40F020012748416244F61F60A0
:1007F00026490860081F008840F05300091F088040
:100800000720FFF7A9FD21482C38008840F0800020
:100810001E492C3908800846008820F01000088006
:100820001A481438008846F2600108431749143901
:1008300008800846008840F6080108431349143927
:100840000880081D008846F2600108430F491039EE
:1008500008800846008840F6080108430B49103913
:100860000880081D008841F21111084307490C391E
:10087000088006482C38008840F0010003492C39D4
:10088000088000BD30380240000802402C040040BF
:10089000704700003148006840F001002F490860AF
:1008A0002E481430006840F001002C4914310860D3
:1008B0002B48006820F44030294908600846006849
:1008C00040F4003008600846C06840F48030C860DA
:1008D0000846806840F4403088600846406A20F04E
:1008E0000F011F484162406A40F001011C4841620B
:1008F0004FF6FF701B49C8625320088508460088E0
:1009000020F0100008800846008B40F001000883AA
:100910000846008B20F00C0008830846008B20F06E
:10092000F00008830846808940F002008881A021F9
:100930000D4801700D48006840F000604FF0E02164
:10094000C1F800010748008840F00100054908800F
:100950000846008C40F0010008847047303802409F
:1009600000000240000001401BE400E000E100E064
:1009700070470000454A126842F00202434B1A6079
:10098000424A1432126842F01002404B14331A608B
:100990003F4A126822F470423D4B1A601A461268B0
:1009A00042F420421A603A4A0832126842F4204265
:1009B000374B08331A601A1D126822F470421B1D4F
:1009C0001A601A46126842F4A0421A60304A203275
:1009D000126822F07F422E4B20331A601A461268AA
:1009E00042F0E0621A601A46126842F0E0421A6071
:1009F000284A928922F40042264B9A811A4692890B
:100A000022F480529A811A46928942F00C029A810D
:100A10001A46128A22F440521A821A46928A22F404
:100A200080629A82DFED1C0AB0EE600AFCEEC00A1A
:100A300010EE900A00EE900AF8EE600A70EE600A7E
:100A4000B3EE001A60EE810AFCEEE00A10EE901A96
:100A500041EA00121A81114A114B1A60F023114A1F
:100A600013700C4A928942F020020A4B9A810E4A76
:100A7000126842F020024FF0E023C3F80421054A37
:100A8000928942F40052034B9A81704730380240F9
:100A90000004024000100140000034420005FA0545
:100AA0000CED00E025E400E004E100E010B50246B2
:100AB000012000E050430B1EA1F10101FAD110BD4D
:100AC00030B504460D46002304E0E05C00F006F873
:100AD000581C83B2AB42F8DB30BD000000BF0549B3
:100AE000098801F080010029F9D0C0F30801014A0A
:100AF0009180704700100140F0B506460C46002575
:100B000012E0601B411E0A20FFF7D0FFB6FBF0F099
:100B10000A21B0FBF1F201FB120000F13007384668
:100B2000FFF7DCFF681CC5B2A542EADBF0BD0000A0
:100B30000CB50020019000903348006840F48030EC
:100B40003149086000BF3048006800F40030009070
:100B50000198401C0190009818B90198B0F5A04F79
:100B6000F1D12948006800F4003010B10120009054
:100B700001E0002000900098012844D12248403034
:100B8000006840F080502049403108601F480068EC
:100B900040F440401D4908601B48083000681A496D
:100BA000083108600846006808600846006840F49C
:100BB000805008601648091F0860081F006840F050
:100BC0008070091F086000BF0F48006800F00070C7
:100BD0000028F9D040F202700E4908600A48083037
:100BE000006820F0030008490831086008460068E2
:100BF00040F00200086000BF03480830006800F0C1
:100C00000C000828F8D10CBD0038024000700040EC
:100C100008544107003C024010B500F065F810BDD3
:100C200010B51548006840F4700013490860134877
:100C3000006840F001001149086000200F490831A8
:100C400008600E4800680E4908400C4908600D48CD
:100C5000091D0860081F006820F48020091F086033
:100C6000002006490C310860FFF762FF4FF000607A
:100C700001498039086010BD88ED00E0003802406D
:100C8000FFFFF6FE103000241548008A00F0020035
:100C900020B30020124948620846406BB0F57A6FD5
:100CA00004D301200F494870002008700D48407897
:100CB000012813D10A48406B01B20A480278007833
:100CC000401C084B1870981C20F81210801E0078E9
:100CD000092803D1002019460870487070470000A9
:100CE00000000140200000200448006820B10348B3
:100CF0000068401E014908607047000000000020A5
:100D000000B50B48008800F0200080B108488088BA
:100D1000084908700120084908700548008820F03B
:100D200020000349088003480078FFF7D7FE00BD84
:100D3000001001400A0000200B00002000BFFEE769
:100D4000FFF7C3FBFFF756FBFFF714FEFFF7A2FD0B
:100D5000FFF7F8FC00244FE028484078012802D132
:100D60002748FFF7C7FA2748844244D92648FFF7A7
:100D700091FB2648FFF72FFB042125A0FFF7A0FEDB
:100D80001E49B1F904000421FFF7B6FE2020FFF749
:100D9000A5FE1A49B1F906000421FFF7ADFE202097
:100DA000FFF79CFE1549B1F908000421FFF7A4FEE6
:100DB0000A20FFF793FE042117A0FFF781FE1249D6
:100DC000B1F900000421FFF797FE2020FFF786FE0F
:100DD0000D49B1F902000421FFF78EFE2020FFF734
:100DE0007DFE0949B1F904000421FFF785FE0A20C0
:100DF000FFF774FE0024641CAEE700002000002012
:100E00000C000020404B4C00140000200400002087
:100E10005245433A000000004D50553A0000000092
:100E20004FF04070E1EE100A704700004C0E0008D1
:100E30000000002014000000D0010008600E00082F
:100E40001400002084060000EC01000800000000EF
:100E50000000000000000000000000000000000092
:040000050800019559
:00000001FF
